{
  "abi": [
    {
      "inputs": [],
      "stateMutability": "nonpayable",
      "type": "constructor"
    },
    {
      "inputs": [
        {
          "internalType": "address",
          "name": "a",
          "type": "address"
        }
      ],
      "name": "changeOwner",
      "outputs": [
        {
          "internalType": "bool",
          "name": "",
          "type": "bool"
        }
      ],
      "stateMutability": "nonpayable",
      "type": "function"
    },
    {
      "inputs": [],
      "name": "exceptOwnerTest",
      "outputs": [
        {
          "internalType": "bool",
          "name": "",
          "type": "bool"
        }
      ],
      "stateMutability": "view",
      "type": "function"
    },
    {
      "inputs": [],
      "name": "ifOwnerTest",
      "outputs": [
        {
          "internalType": "bool",
          "name": "",
          "type": "bool"
        }
      ],
      "stateMutability": "view",
      "type": "function"
    }
  ],
  "bytecode": {
    "object": "0x608060405234801561001057600080fd5b50600080546001600160a01b031916331790556101f8806100326000396000f3fe608060405234801561001057600080fd5b50600436106100415760003560e01c8063a6f9dae114610046578063e42d14bb1461006d578063efc9296814610075575b600080fd5b610059610054366004610192565b61007d565b604051901515815260200160405180910390f35b6100596100f2565b610059610147565b600080546001600160a01b031633146100cd5760405162461bcd60e51b815260206004820152600d60248201526c36bab9ba1031329037bbb732b960991b60448201526064015b60405180910390fd5b50600080546001600160a01b0383166001600160a01b03199091161790556001919050565b600080546001600160a01b031633036101415760405162461bcd60e51b815260206004820152601160248201527036bab9ba102727aa1031329037bbb732b960791b60448201526064016100c4565b50600190565b600080546001600160a01b031633146101415760405162461bcd60e51b815260206004820152600d60248201526c36bab9ba1031329037bbb732b960991b60448201526064016100c4565b6000602082840312156101a457600080fd5b81356001600160a01b03811681146101bb57600080fd5b939250505056fea2646970667358221220c8380232874b2201e5b189d4e6780031b42a6f38dfb8ae4b400f95c42c8d0a5f64736f6c634300080e0033",
    "linkReferences": {}
  },
  "methodIdentifiers": {
    "changeOwner(address)": "a6f9dae1",
    "exceptOwnerTest()": "e42d14bb",
    "ifOwnerTest()": "efc92968"
  },
  "id": 7
}