{
  "abi": [
    {
      "inputs": [
        {
          "internalType": "address",
          "name": "",
          "type": "address"
        }
      ],
      "name": "credit",
      "outputs": [
        {
          "internalType": "uint256",
          "name": "",
          "type": "uint256"
        }
      ],
      "stateMutability": "view",
      "type": "function"
    },
    {
      "inputs": [
        {
          "internalType": "address",
          "name": "to",
          "type": "address"
        }
      ],
      "name": "donate",
      "outputs": [],
      "stateMutability": "payable",
      "type": "function"
    },
    {
      "inputs": [
        {
          "internalType": "address",
          "name": "to",
          "type": "address"
        }
      ],
      "name": "queryCredit",
      "outputs": [
        {
          "internalType": "uint256",
          "name": "",
          "type": "uint256"
        }
      ],
      "stateMutability": "view",
      "type": "function"
    },
    {
      "inputs": [
        {
          "internalType": "uint256",
          "name": "amount",
          "type": "uint256"
        }
      ],
      "name": "withdraw",
      "outputs": [],
      "stateMutability": "nonpayable",
      "type": "function"
    }
  ],
  "bytecode": {
    "object": "0x608060405234801561001057600080fd5b506102bc806100206000396000f3fe60806040526004361061003e5760003560e01c8062362a95146100435780632e1a7d4d1461005857806359f1286d14610078578063d5d44d80146100c0575b600080fd5b6100566100513660046101f8565b6100ed565b005b34801561006457600080fd5b50610056610073366004610228565b61011d565b34801561008457600080fd5b506100ae6100933660046101f8565b6001600160a01b031660009081526020819052604090205490565b60405190815260200160405180910390f35b3480156100cc57600080fd5b506100ae6100db3660046101f8565b60006020819052908152604090205481565b6001600160a01b03811660009081526020819052604081208054349290610115908490610257565b909155505050565b3360009081526020819052604090205481116101f557604051600090339083908381818185875af1925050503d8060008114610175576040519150601f19603f3d011682016040523d82523d6000602084013e61017a565b606091505b50509050806101cf5760405162461bcd60e51b815260206004820152601860248201527f6e6f74207375636365737366756c6c2077697468647261770000000000000000604482015260640160405180910390fd5b33600090815260208190526040812080548492906101ee90849061026f565b9091555050505b50565b60006020828403121561020a57600080fd5b81356001600160a01b038116811461022157600080fd5b9392505050565b60006020828403121561023a57600080fd5b5035919050565b634e487b7160e01b600052601160045260246000fd5b6000821982111561026a5761026a610241565b500190565b60008282101561028157610281610241565b50039056fea2646970667358221220e8aee94eb3a39098e72e1aa17842862d832a6659b6c8cfdf38f54fcf13a0156664736f6c634300080e0033",
    "linkReferences": {}
  },
  "methodIdentifiers": {
    "credit(address)": "d5d44d80",
    "donate(address)": "00362a95",
    "queryCredit(address)": "59f1286d",
    "withdraw(uint256)": "2e1a7d4d"
  },
  "id": 9
}