{
  "abi": [
    {
      "inputs": [],
      "name": "count",
      "outputs": [
        {
          "internalType": "uint256",
          "name": "",
          "type": "uint256"
        }
      ],
      "stateMutability": "view",
      "type": "function"
    },
    {
      "inputs": [],
      "name": "init",
      "outputs": [],
      "stateMutability": "nonpayable",
      "type": "function"
    },
    {
      "inputs": [
        {
          "internalType": "uint256",
          "name": "input",
          "type": "uint256"
        }
      ],
      "name": "run",
      "outputs": [],
      "stateMutability": "nonpayable",
      "type": "function"
    }
  ],
  "bytecode": {
    "object": "0x6080604052600080556001805534801561001857600080fd5b5060d2806100276000396000f3fe6080604052348015600f57600080fd5b5060043610603c5760003560e01c806306661abd146041578063a444f5e914605b578063e1c7392a14606c575b600080fd5b604960015481565b60405190815260200160405180910390f35b606a60663660046084565b6075565b005b606a6001600055565b60005460000360815750565b33ff5b600060208284031215609557600080fd5b503591905056fea2646970667358221220e06ec0a6e7864632ba387a03c082a9fce6e03730944fc254922e45f62c63d52d64736f6c634300080e0033",
    "linkReferences": {}
  },
  "methodIdentifiers": {
    "count()": "06661abd",
    "init()": "e1c7392a",
    "run(uint256)": "a444f5e9"
  },
  "id": 10
}