{
  "abi": [
    {
      "inputs": [],
      "name": "count",
      "outputs": [
        {
          "internalType": "uint256",
          "name": "",
          "type": "uint256"
        }
      ],
      "stateMutability": "view",
      "type": "function"
    },
    {
      "inputs": [],
      "name": "init",
      "outputs": [],
      "stateMutability": "nonpayable",
      "type": "function"
    },
    {
      "inputs": [],
      "name": "run",
      "outputs": [],
      "stateMutability": "nonpayable",
      "type": "function"
    }
  ],
  "bytecode": {
    "object": "0x6080604052600080556001805534801561001857600080fd5b5060b0806100276000396000f3fe6080604052348015600f57600080fd5b5060043610603c5760003560e01c806306661abd146041578063c040622614605b578063e1c7392a146063575b600080fd5b604960015481565b60405190815260200160405180910390f35b6061606c565b005b60616001600055565b600054600003607757565b33fffea26469706673582212204a33368b919cc386f8842257f777db81341da84579473629d7bfeceb0cf595bb64736f6c634300080e0033",
    "linkReferences": {}
  },
  "methodIdentifiers": {
    "count()": "06661abd",
    "init()": "e1c7392a",
    "run()": "c0406226"
  },
  "id": 10
}