{
  "abi": [
    {
      "inputs": [],
      "name": "supportsToken",
      "outputs": [
        {
          "internalType": "bytes32",
          "name": "",
          "type": "bytes32"
        }
      ],
      "stateMutability": "nonpayable",
      "type": "function"
    }
  ],
  "bytecode": {
    "object": "0x6080604052348015600f57600080fd5b5060ac8061001e6000396000f3fe6080604052348015600f57600080fd5b506004361060285760003560e01c80634d5f327c14602d575b600080fd5b606460405167273a902a37b5b2b760c11b602082015260009060280160405160208183030381529060405280519060200120905090565b60405190815260200160405180910390f3fea26469706673582212202fe9b383f0cb452accd1c807577fa34a829285653d0f256cd592050192acc57964736f6c634300080e0033",
    "linkReferences": {}
  },
  "methodIdentifiers": {
    "supportsToken()": "4d5f327c"
  },
  "id": 8
}