{
  "abi": [
    {
      "inputs": [],
      "stateMutability": "nonpayable",
      "type": "constructor"
    },
    {
      "inputs": [],
      "name": "airDrop",
      "outputs": [],
      "stateMutability": "nonpayable",
      "type": "function"
    },
    {
      "inputs": [],
      "name": "getBalance",
      "outputs": [
        {
          "internalType": "uint256",
          "name": "",
          "type": "uint256"
        }
      ],
      "stateMutability": "view",
      "type": "function"
    },
    {
      "inputs": [
        {
          "internalType": "address",
          "name": "",
          "type": "address"
        }
      ],
      "name": "tokenBalance",
      "outputs": [
        {
          "internalType": "uint256",
          "name": "",
          "type": "uint256"
        }
      ],
      "stateMutability": "view",
      "type": "function"
    }
  ],
  "bytecode": {
    "object": "0x608060405234801561001057600080fd5b5060405161001d9061005f565b604051809103906000f080158015610039573d6000803e3d6000fd5b50600180546001600160a01b0319166001600160a01b039290921691909117905561006b565b60ca8061031083390190565b6102968061007a6000396000f3fe608060405234801561001057600080fd5b50600436106100415760003560e01c806312065fe014610046578063ca5d088014610069578063eedc966a14610073575b600080fd5b336000908152602081905260409020545b60405190815260200160405180910390f35b610071610093565b005b6100576100813660046101f1565b60006020819052908152604090205481565b33600090815260208190526040902054156100ec5760405162461bcd60e51b81526020600482015260146024820152736d7573742068617665206e6f2062616c616e636560601b60448201526064015b60405180910390fd5b336001600160a01b0316634d5f327c6040518163ffffffff1660e01b81526004016020604051808303816000875af115801561012c573d6000803e3d6000fd5b505050506040513d601f19601f820116820180604052508101906101509190610221565b60405167273a902a37b5b2b760c11b602082015260280160405160208183030381529060405280519060200120146101ca5760405162461bcd60e51b815260206004820152601c60248201527f737570706f72747320746f6b656e206d7573742062652076616c69640000000060448201526064016100e3565b3360009081526020819052604081208054601492906101ea90849061023a565b9091555050565b60006020828403121561020357600080fd5b81356001600160a01b038116811461021a57600080fd5b9392505050565b60006020828403121561023357600080fd5b5051919050565b6000821982111561025b57634e487b7160e01b600052601160045260246000fd5b50019056fea264697066735822122089b2e0711610fde28dc9407888d46025fbd7f5a30e96affd96120b51f4dea62064736f6c634300080e00336080604052348015600f57600080fd5b5060ac8061001e6000396000f3fe6080604052348015600f57600080fd5b506004361060285760003560e01c80634d5f327c14602d575b600080fd5b606460405167273a902a37b5b2b760c11b602082015260009060280160405160208183030381529060405280519060200120905090565b60405190815260200160405180910390f3fea2646970667358221220ce531a0af5472c6a682f0240a4e9c71442a1f69e45c61290af8012c8fc75ed6064736f6c634300080e0033",
    "linkReferences": {}
  },
  "methodIdentifiers": {
    "airDrop()": "ca5d0880",
    "getBalance()": "12065fe0",
    "tokenBalance(address)": "eedc966a"
  },
  "id": 8
}